:1000000000308A00292800001030AE00A001A301B2
:10001000AB0CAA0C031C12282C08A0070318A30A77
:100020002D08A307A30CA00CA20CA10CAE0B082852
:1000300087280830A902031C2828293084000310CF
:10004000800C00080319282826280000800B25288A
:100050009028713083168F000F0807308312A60096
:100060001F1383161F109F101F119F11073083123B
:1000700099001F3083051F1383161F149F101F1133
:100080009F111F169F161F1383129F171F140030F6
:10009000A1001F08F33921049F00C0308B040030F9
:1000A000A1000438920009308316920007308312B1
:1000B000990083160508850006308312A000A00B66
:1000C0005F28000019088C11831605118312051191
:1000D0000C309500713083168F000F088312930146
:1000E0009F149F18712883161E088312A4001E08EF
:1000F000A500A901250CA800A80C3F30A8052908D7
:10010000AB002808AA00AD01FF30AC00042821088C
:10011000A700270893000230A800F830A90019288A
:08012000A80B8D287028630074
:02400E00E43F8D
:00000001FF
;PIC12F683
;CRC=AEC5  CREATED="19-Oca-19 00:35"
